:100000000C945D000C9485000C9485000C94850084
:100010000C9485000C9485000C9485000C9485004C
:100020000C9485000C9485000C9485000C9485003C
:100030000C9485000C9485000C9485000C9485002C
:100040000C94DE000C9485000C94E8020C942B03B5
:100050000C9485000C9485000C9485000C9485000C
:100060000C9485000C94850000000007000201003C
:100070000003040600000000000000000102040864
:100080001020408001020408102001020408102002
:10009000040404040404040402020202020203032E
:1000A0000303030300000000250028002B000000CC
:1000B0000000240027002A00E70311241FBECFEF11
:1000C000D8E0DEBFCDBF11E0A0E0B1E0E6E0FBE0AC
:1000D00002C005900D92A831B107D9F711E0A8E14F
:1000E000B1E001C01D92AB3CB107E1F710E0CAEBF3
:1000F000D0E004C02297FE010E947D05C83BD107D5
:10010000C9F70E94B0000C9481050C94000061E0D6
:100110008DE00E94DD0140E855E260E070E081E2A0
:1001200091E00C946603CF93DF938EE00E94BD00B4
:10013000EC014AE050E0BC0181E291E00E943F0501
:100140006F9714F060E001C061E08DE00E9415023D
:100150006AEF70E080E090E0DF91CF910C94520163
:100160000E9478010E948700C2E2D3E00E949300BF
:100170002097E1F30E942203F9CF8E3008F08E50D1
:1001800087702091060140E4249F90011124822B66
:1001900080937C0080917A00806480937A008091C3
:1001A0007A0086FDFCCF2091780030917900932F62
:1001B00080E0AC01422B9A01C90108951F920F9271
:1001C0000FB60F9211242F933F938F939F93AF936A
:1001D000BF938091180190911901A0911A01B091DB
:1001E0001B0130912001232F2D5F2D3720F4019624
:1001F000A11DB11D05C0232F2A570296A11DB11DB7
:10020000209320018093180190931901A0931A0163
:10021000B0931B0180911C0190911D01A0911E01C2
:10022000B0911F010196A11DB11D80931C019093F7
:100230001D01A0931E01B0931F01BF91AF919F912B
:100240008F913F912F910F900FBE0F901F90189597
:100250000F931F939FB7F89400911C0110911D01FB
:1002600020911E0130911F0186B5A89B06C08F3FCB
:1002700021F00F5F1F4F2F4F3F4F9FBF322F212F76
:10028000102F0027080F111D211D311D42E0000F06
:10029000111F221F331F4A95D1F7B801C9011F91C1
:1002A0000F910895CF92DF92EF92FF92CF93DF9359
:1002B0006B017C010E942801EB010EC00E94280105
:1002C0006C1B7D0B683E734038F081E0C81AD10882
:1002D000E108F108C851DC4FC114D104E104F10474
:1002E00069F7DF91CF91FF90EF90DF90CF90089565
:1002F000789484B5826084BD84B5816084BD85B501
:10030000826085BD85B5816085BDEEE6F0E08081C7
:1003100081608083E1E8F0E01082808182608083E8
:10032000808181608083E0E8F0E08081816080836B
:10033000E1EBF0E0808184608083E0EBF0E080819D
:1003400081608083EAE7F0E080818460808380813F
:1003500082608083808181608083808180688083E7
:100360001092C1000895833069F028F48130A1F023
:10037000823011F514C08630B1F08730C1F084307E
:10038000D9F404C0809180008F7703C080918000F1
:100390008F7D80938000089584B58F7702C084B5E7
:1003A0008F7D84BD08958091B0008F7703C08091C8
:1003B000B0008F7D8093B0000895CF93DF9390E0DD
:1003C000FC01E458FF4F4491FC01E057FF4F84913A
:1003D000882341F190E0880F991FFC01E255FF4FFF
:1003E00025913491D9018C559F4FFC0185919491B1
:1003F000C82FD92F9FB7F8948C91611106C04095F2
:1004000084238C938881842308C0623041F4242F94
:10041000209582238C938881842B888302C0842B2F
:100420008C939FBFDF91CF9108950F931F93CF932C
:10043000DF931F92CDB7DEB7282F30E0F901E859DE
:10044000FF4F8491F901E458FF4F1491F901E057EF
:10045000FF4F04910023D1F0882321F069830E948B
:10046000B3016981E02FF0E0EE0FFF1FEC55FF4F65
:1004700085919491DC019FB7F8948C91611103C030
:100480001095812301C0812B8C939FBF0F90DF912A
:10049000CF911F910F910895FC0184859585FC01F2
:1004A000E05CFF4F20813181FC01EE5BFF4F8081DA
:1004B0009181281B390B2F733327C9010895FC0143
:1004C00084859585FC01E05CFF4F40815181FC01F2
:1004D000EE5BFF4F208131814217530741F00190BD
:1004E000F081E02DE80FF91F208130E002C02FEFEE
:1004F0003FEFC9010895FC0184859585FC01E05C0E
:10050000FF4F40815181FC01EE5BFF4F2081318123
:100510004217530781F0A081B181A80FB91F8C91B8
:10052000208131812F5F3F4F2F7333273183208309
:10053000282F30E002C02FEF3FEFC9010895FC01E2
:1005400081A1882329F0A489B5898C9186FFFBCFEE
:1005500011A20895CF93DF93FC0126853785D90139
:10056000A05CBF4F8D919C91119701968F73992735
:10057000E901CE5BDF4F4881598184179507D9F394
:100580000D90BC91A02DA20FB31F6C93A685B785CB
:10059000A05CBF4F11969C938E93A689B7892C912E
:1005A00081E090E0078C02C0880F991F0A94E2F75F
:1005B000282B2C9381E081A30488F589E02D80818C
:1005C0008064808381E090E0DF91CF910895089569
:1005D0001F920F920FB60F9211242F933F934F93B8
:1005E0008F939F93EF93FF938091C00082FD1CC077
:1005F0004091C6008091C7019091C80101968F7308
:1006000099272091C9013091CA018217930771F08F
:10061000E091C701F091C801E957FE4F40839093E4
:10062000C8018093C70102C08091C600FF91EF917D
:100630009F918F914F913F912F910F900FBE0F90EF
:100640001F90189581E291E00E944C02892B11F0D5
:100650000C94E70208951F920F920FB60F92112487
:100660002F933F938F939F93EF93FF932091830159
:100670003091840180918501909186012817390776
:1006800031F48091C1008F7D8093C10014C0E0914E
:100690008501F0918601ED5BFE4F208180918501FF
:1006A0009091860101968F7399279093860180938C
:1006B00085012093C600FF91EF919F918F913F910B
:1006C0002F910F900FBE0F901F901895CF92DF9231
:1006D000EF92FF92CF93DF93EC016A017B0141150A
:1006E00081EE580761057105F9F0EC89FD8981E01B
:1006F00090E008A002C0880F991F0A94E2F7808357
:1007000060E079E08DE390E0A70196010E94590531
:10071000215031094109510956954795379527953B
:10072000211580E1380798F0EC89FD89108260E896
:1007300074E88EE190E0A70196010E9459052150CE
:100740003109410951095695479537952795E8890B
:10075000F9893083EA89FB89208319A2EE89FF8910
:10076000408181E090E09C010C8C02C0220F331F7D
:100770000A94E2F7422B4083EE89FF8940819C0175
:100780000D8C02C0220F331F0A94E2F7422B4083E4
:10079000EE89FF8940819C010E8C02C0220F331F1D
:1007A0000A94E2F7422B4083EE89FF8920810F8C67
:1007B00002C0880F991F0A94E2F7809582238083F4
:1007C000DF91CF91FF90EF90DF90CF90089510923E
:1007D00024011092230188EE93E0A0E0B0E0809322
:1007E000250190932601A0932701B09328018BE067
:1007F00091E0909322018093210187E891E090930A
:100800002E0180932D0183E491E090933001809339
:100810002F0185EC90E0909332018093310184ECBC
:1008200090E0909334018093330180EC90E09093BA
:1008300036018093350181EC90E0909338018093EC
:10084000370182EC90E090933A018093390186EC75
:1008500090E090933C0180933B0184E080933D01C4
:1008600083E080933E0187E080933F0185E08093A1
:10087000400181E0809341010895CF92DF92EF9291
:10088000FF920F931F93CF93DF936C01EB017A01DB
:10089000E60EF71E00E010E00BC06991D601ED9165
:1008A000FC910190F081E02DC6010995080F191FF8
:1008B000CE15DF0591F7C801DF91CF911F910F9100
:1008C000FF90EF90DF90CF9008956115710581F052
:1008D000DB010D900020E9F7AD0141505109461BA5
:1008E000570BDC01ED91FC910280F381E02D09941E
:1008F00080E090E00895DC01ED91FC910190F081A1
:10090000E02D09940F931F93CF93DF93EC016DE0DB
:100910000E947B048C016AE0CE010E947B049C0152
:10092000200F311FC901DF91CF911F910F910895C1
:100930004F925F926F927F929F92AF92BF92CF92AF
:10094000DF92EF92FF920F931F93CF93DF93CDB778
:10095000DEB7A1970FB6F894DEBF0FBECDBF5C0126
:100960006A017B01922E19A281E0821710F08AE0C1
:10097000982E8E010F5D1F4F492C512C612C712C2C
:10098000C701B601A30192010E9459058C2D929EC8
:1009900080191124015011098A3010F4805D01C0C2
:1009A000895CF801808369017A01C114D104E104F2
:1009B000F10431F7B801C5010E946504A1960FB694
:1009C000F894DEBF0FBECDBFDF91CF911F910F9185
:1009D000FF90EF90DF90CF90BF90AF909F907F906F
:1009E0006F905F904F900895CF92DF92EF92FF92B9
:1009F0000F931F93CF93DF93EC016A017B012115C5
:100A0000310579F4E881F9810190F081E02D642FBE
:100A1000DF91CF911F910F91FF90EF90DF90CF90DA
:100A200009942A30310519F477FD0EC02AE0B70188
:100A3000A601CE01DF91CF911F910F91FF90EF9012
:100A4000DF90CF900C9498046DE20E947B048C019F
:100A500044275527BA014C195D096E097F092AE020
:100A6000CE010E949804080F191FC801DF91CF9191
:100A70001F910F91FF90EF90DF90CF9008950F930B
:100A80001F93CF93DF93EC019A01AB01662757FDCB
:100A90006095762F0E94F4048C01CE010E9482049E
:100AA0009801280F391FC901DF91CF911F910F9134
:100AB0000895A1E21A2EAA1BBB1BFD010DC0AA1F9F
:100AC000BB1FEE1FFF1FA217B307E407F50720F0B7
:100AD000A21BB30BE40BF50B661F771F881F991F32
:100AE0001A9469F760957095809590959B01AC017B
:100AF000BD01CF010895EE0FFF1F0590F491E02D89
:060B00000994F894FFCFF8
:100B06000000CB0120000100000000AA023D044CB9
:080B1600027B025F029F020056
:00000001FF
